:100000000C9434000C943E000C943E000C943E0082
:100010000C943E000C943E000C943E000C943E0068
:100020000C943E000C943E000C943E000C943E0058
:100030000C943E000C943E000C943E000C943E0048
:100040000C943E000C943E000C943E000C943E0038
:100050000C943E000C943E000C943E000C943E0028
:100060000C943E000C943E0011241FBECFEFD8E04C
:10007000DEBFCDBF0E9484000C94B4000C9400003D
:10008000EAE2F0E08081806C8083E4E2F0E080814D
:10009000876C8083E4E4F0E0808183688083E5E41A
:1000A000F0E080818160808317BC0895EBE2F0E08E
:1000B000808180688083E5E2F0E080818E7F8083AC
:1000C00080818064808380818F7780838081846059
:1000D000808380818D7F80830895EBE2F0E08081D2
:1000E0008F778083E5E2F0E080818160808380818A
:1000F0008F7B808380818068808380818B7F8083F9
:100100008081826080830895CF92DF92EF92FF9288
:100110000F931F93CF93DF930E9440000F2EF7E4BD
:10012000EF2EFF24F02D0F2EF4E6DF2EF02D08E940
:100130001AE3C9E1D0E0CC24CA94F701D0820E942E
:1001400056009801CE010197F1F721503040D1F7C8
:10015000F701C0820E946D009801CE010197F1F76E
:0C01600021503040D1F7E9CFF894FFCFD8
:00000001FF
