:100000000C9434000C943E000C943E000C943E0082
:100010000C943E000C943E000C943E000C943E0068
:100020000C943E000C943E000C943E000C943E0058
:100030000C943E000C943E000C943E000C943E0048
:100040000C943E000C943E000C943E000C943E0038
:100050000C943E000C943E000C943E000C943E0028
:100060000C943E000C943E0011241FBECFEFD8E04C
:10007000DEBFCDBF0E946C000C948B000C9400007E
:10008000EAE2F0E080818064808380818068808300
:10009000E4E2F0E0808181608083E4E4F0E080814C
:1000A00083688083E5E4F0E0808181608083089547
:1000B000EBE2F0E0808180688083E5E2F0E080811F
:1000C00080830895EBE2F0E080818083E5E2F0E058
:1000D00080818160808308950F931F93CF93DF9376
:1000E0000E94400088E787BD00E21EE4C0E9D1E03D
:1000F0000E9458009801CE010197F1F7215030403D
:10010000D1F70E9462009801CE010197F1F72150CA
:0A0110003040D1F7EDCFF894FFCF97
:00000001FF
