:100000000C9434000C943E000C943E000C943E0082
:100010000C943E000C943E000C943E000C943E0068
:100020000C943E000C943E000C943E000C943E0058
:100030000C943E000C943E000C943E000C943E0048
:100040000C943E000C943E000C943E000C943E0038
:100050000C943E000C943E000C943E000C943E0028
:100060000C943E000C943E0011241FBECFEFD8E04C
:10007000DEBFCDBF0E94D7000C94F6000C940000A8
:10008000EAE2F0E08081806C8083E7E2F0E080814A
:1000900083608083E4E2F0E08081876C8083E4E425
:1000A000F0E0808183688083E5E4F0E08081816016
:1000B000808317BC0895EBE2F0E080818068808344
:1000C000A5E2B0E08C918E7F8C93E8E2F0E0808135
:1000D0008260808380818E7F80838C9180648C930A
:1000E0008C918F778C938C9184608C938C918D7F85
:1000F0008C930895EBE2F0E080818F778083A5E216
:10010000B0E08C9181608C93E8E2F0E080818D7F9B
:1001100080838081816080838C918F7B8C938C9194
:1001200080688C938C918B7F8C938C9182608C9364
:100130000895EBE2F0E080818F778083A5E2B0E064
:100140008C9181608C93E8E2F0E080818260808312
:1001500080818E7F80838C918F7B8C938C91806843
:100160008C938C9184608C938C918D7F8C9308956B
:10017000EBE2F0E0808180688083A5E2B0E08C91C2
:100180008E7F8C93E8E2F0E080818D7F8083808198
:10019000816080838C9180648C938C918F778C9319
:1001A0008C918B7F8C938C9182608C9308950F93AC
:1001B0001F93CF93DF930E9440008FEF87BD08E825
:1001C00013E1C9E1D0E00E9499009801CE010197A6
:1001D000F1F721503040D1F70E94B8009801CE01CC
:1001E0000197F1F721503040D1F7EDCFF894FFCFD0
:00000001FF
