:100000000C9434000C943E000C943E000C943E0082
:100010000C943E000C943E000C943E000C943E0068
:100020000C943E000C943E000C943E000C943E0058
:100030000C943E000C943E000C943E000C943E0048
:100040000C943E000C943E000C943E000C943E0038
:100050000C943E000C943E000C943E000C943E0028
:100060000C943E000C943E0011241FBECFEFD8E04C
:10007000DEBFCDBF0E947F000C94A3000C94000053
:10008000EAE2F0E0808184608083E4E2F0E0808155
:1000900088608083E4E4F0E0808183688083E5E425
:1000A000F0E0808181608083E3EBF0E0108280816A
:1000B00087BD0895E1ECF0E0808188618083E2EC07
:1000C000F0E08081866080831092C5008FEC809381
:1000D000C4000895E0ECF0E080818823ECF7809183
:1000E000C6000895982FE0ECF0E0808185FFFDCFF9
:1000F0009093C600089517BC8093B3000895EF92C3
:10010000FF920F931F93CF93DF930E9440002FEF36
:1001100030E00F2EF0E5EF2EF3ECFF2EF02DC0E9CE
:10012000D1E000E010E0C9010E947B009701CE0100
:100130000197F1F721503040D1F79801F4CF87BDF6
:0A0140001092B3000895F894FFCF69
:00000001FF
