:100000000C9434000C943E000C943E000C943E0082
:100010000C943E000C943E000C943E000C943E0068
:100020000C943E000C943E000C943E000C943E0058
:100030000C943E000C943E000C943E000C943E0048
:100040000C943E000C943E000C943E000C943E0038
:100050000C943E000C943E000C943E000C943E0028
:100060000C943E000C943E0011241FBECFEFD8E04C
:10007000DEBFCDBF0E945C000C94B0000C94000069
:1000800086E08093C20088E18093C1001092C50091
:1000900081E88093C4000895BC01009761F020E0DE
:1000A00030E044EC59E0CA010197F1F72F5F3F4F70
:1000B00026173707C0F30895AF92BF92CF92DF9211
:1000C000EF92FF920F931F93CF93DF930E94400014
:1000D000E1E6F0E090E890831082EAE2F0E08081CF
:1000E000806C8083E4E4F0E0808183688083E5E4D1
:1000F000F0E080818160808397BDEBE2F0E0808159
:1001000080648083C0ECD0E00F2EF6ECAF2EBB24D1
:10011000F02D0F2EF7E4CF2EDD24F02D0F2EFBE275
:10012000EF2EFF24F02D88818823ECF7F5019081D4
:10013000888185FFFDCFF6019083F701808180687B
:10014000808300E0802F10E0912F0E944C00F70187
:1001500080818F778083802F912F0E944C00E3CF86
:04016000F894FFCF41
:00000001FF
