:100000000C9434000C9446000C9446000C9446006A
:100010000C9446000C9446000C9446000C94460048
:100020000C9446000C9446000C9446000C94460038
:100030000C9446000C9446000C9446000C94460028
:100040000C9446000C9463000C9446000C944600FB
:100050000C9446000C9446000C9446000C94460008
:100060000C9446000C94460011241FBECFEFD8E03C
:10007000DEBFCDBF11E0A0E0B1E001C01D92A23013
:10008000B107E1F70E9448000C9476000C94000040
:1000900084B18C6284B924988CB580618CBD8CB598
:1000A00083608CBD8CB580688CBD8CB580648CBD44
:1000B000789480E090E00DB407FEFDCF90930101AD
:1000C00080930001F8CF1F920F920FB60F92112468
:1000D0008F939F9380910001909101018EBD9F911C
:1000E0008F910F900FBE0F901F901895F894FFCF2F
:00000001FF
