:100000000C944C000C9456000C9456000C94560022
:100010000C9456000C9456000C9456000C94560008
:100020000C9456000C9456000C9456000C945600F8
:100030000C9456000C9456000C9456000C945600E8
:100040000C9456000C9456000C9456000C945600D8
:100050000C9456000C9456000C9456000C945600C8
:100060000C9456000C9456000C9456000C945600B8
:100070000C9456000C9456000C9456000C945600A8
:100080000C9456000C9456000C9456000C94560098
:100090000C9456000C94560011241FBECFEFD0E2F2
:1000A000DEBFCDBF0E9458000C9495000C94000058
:1000B000E1E6F0E080E88083108294B1906A94B920
:1000C00094B5936894BD95B5916095BD87BD30E8B2
:1000D00020E490E280E12D9A4FEF53ED60E3415030
:1000E00050406040E1F700C0000037BD4FEF53EDD6
:1000F00060E3415050406040E1F700C0000027BD80
:100100004FEF53ED60E3415050406040E1F700C0D5
:10011000000097BD4FEF53ED60E341505040604009
:0E012000E1F700C0000087BDD6CFF894FFCFF6
:00000001FF
