:100000000C9434000C9446000C9446000C9446006A
:100010000C9446000C9446000C9446000C94460048
:100020000C9446000C9446000C9446000C94460038
:100030000C9446000C9446000C9446000C94460028
:100040000C9446000C945A000C9446000C94460004
:100050000C9446000C9446000C9446000C94460008
:100060000C9446000C94460011241FBECFEFD8E03C
:10007000DEBFCDBF11E0A0E0B1E001C01D92A23013
:10008000B107E1F70E9448000C946E000C94000048
:1000900084B1837D84B9249A8CB58F7E8CBD8CB558
:1000A00083608CBD8CB580688CBD8CB580648CBD44
:1000B0007894FFCF1F920F920FB60F9211248F9357
:1000C0009F938EB590E090930101809300019F91E2
:1000D0008F910F900FBE0F901F901895F894FFCF3F
:00000001FF
