:100000000C9434000C943E000C943E000C943E0082
:100010000C943E000C943E000C943E000C943E0068
:100020000C943E000C943E000C943E000C943E0058
:100030000C943E000C943E000C943E000C943E0048
:100040000C943E000C943E000C943E000C943E0038
:100050000C943E000C943E000C943E000C943E0028
:100060000C943E000C943E0011241FBECFEFD8E04C
:10007000DEBFCDBF0E940E010C9417010C9400004E
:10008000E5E2F0E0808180628083EBE2F0E0808155
:10009000806880830895E8E4F0E08083808187BDF4
:1000A000E5E2F0E0808180628083EBE2F0E0808135
:1000B000806880830895E5E2F0E08081816180833B
:1000C000EBE2F0E0808180830895E8E4F0E0808353
:1000D000808187BDE5E2F0E0808181618083EBE291
:1000E000F0E0808180830895E5E2F0E08081826025
:1000F0008083EBE2F0E08081806180830895E4EB0F
:10010000F0E0808380818093B300E5E2F0E08081BD
:1001100082608083EBE2F0E08081806180830895DB
:10012000E5E2F0E0808184608083EBE2F0E08081B2
:10013000846080830895E4EBF0E080838081809385
:10014000B300E5E2F0E0808184608083EBE2F0E0E0
:100150008081846080830895E4EBF0E08083808177
:10016000E3EBF0E080838081E8E4F0E0808380814D
:1001700087BD0E945B000E9490000895E4EBF0E0D0
:1001800080838081E3EBF0E080838081E8E4F0E02D
:100190008083808187BD0E9440000E947400089582
:1001A0000E945B000E94900008950E9440000E94FF
:1001B00074000895E0EBF0E083EF8083808184BDDC
:1001C000E1EBF0E085E08083808185BDE4EBF0E049
:1001D00010828081E3EBF0E080838081E8E4F0E04E
:1001E0008083808187BDEAE2F0E080818D6F80832B
:1001F000E4E2F0E080818F6380830895BC01009782
:1002000061F020E030E04AEF50E0CA010197F1F7D9
:100210002F5F3F4F26173707C0F308950E94DA007B
:1002200084E60E944B0084E60E949B00FFCFF89476
:02023000FFCFFE
:00000001FF
